:1000000000400820E1FD000049FE000051FE000014
:1000100059FE000061FE000069FE000000000000C3
:1000200000000000000000000000000071FE000061
:1000300079FE00000000000081FE000089FE000043
:1000400091FE0000A1EF0000A1FE0000A9FE00004B
:10005000B1FE0000D1F90000C1FE0000C9FE0000A1
:10006000D1FE0000D9FE00008DE00000E9FE000096
:10007000F1FE0000F9FE0000DDEB000009FF0000CA
:1000800011FF000019FF000021FF000081CC0000DB
:1000900031FF000039FF000041FF000049FF000070
:1000A00051FF000059FF000061FF000069FF0000E0
:1000B00071FF000051E2000081FF000089FF000095
:1000C00008B500F0B7F900F061FB002004F068FD0E
:1000D000022004F043FD2949294802F0F5F9284B94
:1000E0001B78284A2849184602F012FA244B1B783C
:1000F000264A2749184602F057FA214B1B78254A11
:100100002549184602F050FA1D4B1B78234A244912
:10011000184602F049FA1A4B1B78224A224918461F
:1001200002F042FA164B1B78204A2149184602F089
:100130003BFA134B1B781F4A1F49184602F034FA4A
:1001400000F0AEF81D491E4808F04CFB0346012B99
:10015000F8D11B4B1B681B4A1360184B1B681A4ACB
:100160001360074B1B78164A126891B2134A126843
:1001700092B2184601F010F9E4E700BF04C007206E
:100180000000001018C007200100001038C0072030
:100190000200001058C007200300001078C007209C
:1001A0000400001098C0072005000010B8C0072008
:1001B00006000010D8C00720070000100C00001037
:1001C00008000010180000101C00001088B00190FA
:1001D000019B002B02D0019B012B01D1019B26E04A
:1001E00001230793019B5B0806931BE0079A069B7C
:1001F00013445B080493049B03FB03F30393039AE8
:10020000019B9A4201D1049B11E0039A019B9A42FF
:1002100005D2049B01330793049B059302E0049BE2
:10022000013B0693079A069B9A42DFD9059B184625
:1002300008B07047024B01221A6000BF704700BF30
:1002400020000010024B02221A6000BF704700BF5E
:1002500020000010024B03221A6000BF704700BF4D
:1002600020000010024B04221A6000BF704700BF3C
:100270002000001000B583B0074B18684FF6FF73DD
:100280000193002300930123044A322105F04EFB21
:1002900000BF03B05DF804FB00C00720DC4D010087
:1002A00000B583B0124B1B78184601F049F80423BF
:1002B000482224212A2004F0EFFE102214215F207E
:1002C00004F060FF242394220421762004F0E6FC4D
:1002D0004FF6FF730193002300930123054A0C217D
:1002E000C52005F023FB00BF03B05DF804FB00BF91
:1002F00000000010E44D010008B5FFF7D1FF00BF7A
:1003000008BD00B583B0444B1B68013B032B7ED86E
:1003100001A252F823F000BF290300005B03000094
:1003200087030000E90300003C4B1B683C4A12684D
:100330001146184604F094FC07E03A4B1B683A4A11
:1003400012681146184604F08BFC3749354808F00E
:1003500049FA0346012BF0D05AE000BF3249314838
:1003600008F040FA0346012BF8D0304B1B681846C2
:100370002F4B1B6819462B4B1B681A462A4B1B68D0
:1003800004F08AFE44E000BF2749264808F02AFA14
:100390000346012BF8D0234B1A68244B1B68D31A51
:1003A000204A1168214A12688A1A03FB02F21E4B86
:1003B00019681F4B1B68CB1A1B4908681C49096840
:1003C000411A01FB03F3134401930198FFF7FEFE6A
:1003D0000090164B1B681846154B1B681946009B6E
:1003E0001A4604F0CFFE13E000BF0F490D4808F095
:1003F000F9F90346012BF8D00C4B18680C4B19681F
:10040000084B1A68084B1B6804F048FC00E000BF6A
:1004100000BF03B05DF804FB2000001008000010CE
:100420000C00001010000010140000101800001044
:100430001C00001000B585B0A2480FF009FB022196
:10044000A1480CF045FC03468DF80F3006219F486B
:100450000CF03EFC03468DF80F3006219C480CF052
:1004600037FC03468DF80F3001219A480CF030FC20
:1004700003468DF80F30042197480CF029FC034601
:100480008DF80F30052195480CF022FC03468DF8BD
:100490000F30022192480CF01BFC03468DF80F3000
:1004A000012190480CF014FC03468DF80F308E4863
:1004B0000EF078FF03468DF80F309DF80F30002BBB
:1004C00000D0FEE789480DF0EDFD03468DF80F30B2
:1004D0009DF80F30002B03D085480FF0CFF8FEE7D2
:1004E00084480FF0CBF80DF07FFE01200CF0A6F948
:1004F00081480EF0CBFB03468DF80F309DF80F308E
:10050000002B03D07D480FF0B9F8FEE77C480FF0D0
:10051000B5F80EF083FC7B480DF0B0FE03468DF875
:100520000F309DF80F30002B03D077480FF0A6F85E
:10053000FEE776480FF0A2F875480DF0ABF80346D9
:100540008DF80F309DF80F30002B03D071480FF05D
:1005500095F8FEE770480FF091F8704803F016F830
:1005600003468DF80F309DF80F30002B03D06C48F8
:100570000FF084F8FEE76B480FF080F86A4803F04C
:1005800013FF03468DF80F309DF80F30002B03D07A
:1005900066480FF073F8FEE765480FF06FF865489E
:1005A00007F05EFE03468DF80F309DF80F30002BEC
:1005B00003D061480FF062F8FEE760480FF05EF884
:1005C0005F4806F077FD03468DF80F309DF80F3039
:1005D000002B03D05B480FF051F8FEE75A480FF0AC
:1005E0004DF85A480CF0AEF903468DF80F309DF8DF
:1005F0000F30002B03D056480FF040F8FEE7554867
:100600000FF03CF813238DF80E30012302939DF96F
:100610000E30002B0CDA029BDAB24F499DF80E30F7
:1006200003F00F03043BD200D2B20B441A7609E068
:10063000029BDAB249499DF90E30D200D2B20B4486
:1006400083F8002300BF0521454806F051FC03460E
:100650008DF80F309DF80F30002B03D041480FF07C
:100660000DF8FEE740480FF009F80DF107033F4988
:10067000184608F0CFF803468DF80F309DF80F307C
:10068000002B03D03A480EF0F9FFFEE739480EF090
:10069000F5FF3949002009F0E9FC03468DF80F30D9
:1006A0009DF80F30002B03D034480EF0E7FFFEE733
:1006B00033480EF0E3FF33480EF0E0FF00BF05B013
:1006C0005DF804FBF8C0072020C30720ACC4072056
:1006D00034C4072080C307207CC40720E4C207205D
:1006E0004CC107208CC1072038C1072004C1072056
:1006F000EC4D0100084E010014C107201C4E010002
:100700003C4E010040C10720544E0100744E0100D0
:1007100064C10720884E0100A84E010098C107203F
:10072000BC4E0100DC4E0100A0C10720F44E0100C8
:10073000104F010010C20720244F0100484F010054
:100740007CC10720644F01008C4F010040C207208C
:10075000A84F0100DC4F010000ED00E000E100E0E7
:1007600048C207200450010024500100A4C2072001
:100770003C5001005C500100240000107450010046
:1007800094500100A850010000BF704700B583B02D
:1007900000F01AF803468DF807309DF80730002B5B
:1007A00001D001230CE002F091F803468DF80730E8
:1007B0009DF80730002B01D0012301E09DF80730A0
:1007C000184603B05DF804FB08B5002002F06AF893
:1007D0000246024B1A600023184608BD580200105A
:1007E00000B583B000238DF8073002F069F80346A6
:1007F0001A46104B1A7012E00F4B1A689DF807301A
:10080000DB0013445B79012B04D19DF807301846B7
:1008100000F014F89DF8073001338DF80730054BD0
:100820001B789DF807209A42E6D30023184603B0B0
:100830005DF804FB5C0200105802001000B585B0A2
:1008400003468DF80730714B1A689DF80730DB00BE
:1008500013441B68DB7B002B40F091806B4B1A68C4
:100860009DF80730DB00134401221A71674B1A68A8
:100870009DF80730DB0013441B681B7C002B23D141
:10088000624B1A689DF80730DB0013441B681B7924
:100890001A465F4B53F822309DF80720104600217E
:1008A00000229847594B1A689DF80730DB00134423
:1008B0001B689A89574B1A83564802F051F9034630
:1008C0008DF80F3000239DE0504B1A689DF80730DB
:1008D000DB0013441B79012B1BD14C4B1A689DF88C
:1008E0000730DB0013441B681B791A46484B53F84A
:1008F00022309DF807201046012100229847464BE0
:100900001A88444B1A83434802F02AF903468DF8AB
:100910000F303E4B1A689DF80730DB0013441B680C
:100920001B791A463A4B53F822309DF8072010469F
:10093000002100229847354B1A689DF80730DB00EC
:1009400013441B689A89334B1A83324802F008F922
:1009500003468DF80F302D4B1A689DF80730DB00E9
:1009600013441B681B791A46294B53F822309DF813
:1009700007201046002101229847002342E0234B24
:100980001A689DF80730DB0013441B681B7C012BA1
:1009900011D11E4B1A689DF80730DB0013441B6809
:1009A0001B791A461A4B53F822309DF8072010463F
:1009B000002101229847154B1A689DF80730DB008B
:1009C00013441B79012B1BD1104B1A689DF807307B
:1009D000DB0013441B681B791A460D4B53F8223079
:1009E0009DF8072010460021002298470A4B1A88DC
:1009F000084B1A83074802F0B3F803468DF80F300E
:100A00009DF80F30184605B05DF804FB5802001041
:100A1000D0C5072060020010CCC5072082B0134665
:100A200002468DF807200A468DF806208DF805301D
:100A30009DF80530012B4CD1594B1A689DF80730B1
:100A4000DB0013441B685B691B68554A11689DF8FD
:100A50000720D2000A441268926812881A80504B0C
:100A60001A689DF80730DB0013441B685B691B683C
:100A70004B4A11689DF80720D2000A441268926818
:100A800052885A80464B1A689DF80730DB001344A1
:100A90001B685B691B68424A11689DF80720D200F9
:100AA0000A441268926892889A803D4B1A689DF8B1
:100AB0000730DB0013441B685B691B68384A116808
:100AC0009DF80720D2000A4412689268D288DA8022
:100AD00063E09DF80630012B30D1314B1A689DF848
:100AE0000730DB0013441B685B691B681A882D4BB9
:100AF0009A802B4B1A689DF80730DB0013441B6863
:100B00005B691B685A88274BDA80254B1A689DF869
:100B10000730DB0013441B685B691B689A88214B14
:100B20001A811F4B1A689DF80730DB0013441B68BD
:100B30005B691B68DA881B4B5A812BE0184B1A68DB
:100B40009DF80730DB0013441B689B681A88154B1F
:100B50009A80134B1A689DF80730DB0013441B681A
:100B60009B685A880F4BDA800D4B1A689DF8073046
:100B7000DB0013441B689B689A880A4B1A81084B58
:100B80001A689DF80730DB0013441B689B68DA88FD
:100B9000044B5A81034B00221A7002B0704700BF09
:100BA000580200106002001082B0134602468DF811
:100BB00007200A468DF806208DF805309DF805308F
:100BC000012B39D14B4B1A689DF80730DB001344D9
:100BD0001B685B691B68474A11689DF80720D200B3
:100BE0000A441268926812881A80424B1A689DF86B
:100BF0000730DB0013441B685B691B683D4A1168C2
:100C00009DF80720D2000A441268926852885A80E0
:100C1000384B1A689DF80730DB0013441B685B698A
:100C20001B68344A11689DF80720D2000A441268F4
:100C3000926892889A805AE09DF80630012B24D160
:100C40002C4B1A689DF80730DB0013441B685B6966
:100C50001B681A88284B9A80264B1A689DF8073023
:100C6000DB0013441B685B691B685A88224BDA80DF
:100C7000204B1A689DF80730DB0013441B685B6942
:100C80001B689A881C4B1A8120E01A4B1A689DF841
:100C90000730DB0013441B689B681A88164B9A8048
:100CA000144B1A689DF80730DB0013441B689B68DF
:100CB0005A88114BDA800F4B1A689DF80730DB0019
:100CC00013441B689B689A880B4B1A81094B1A685E
:100CD0009DF80730DB0013441B689B7B012B03D17D
:100CE000054B02221A7002E0034B01221A7002B077
:100CF000704700BF580200106002001082B0134617
:100D000002468DF807200A468DF806208DF805303A
:100D10009DF80530012B4CD1604B1A689DF80730C7
:100D2000DB0013441B685B691B685C4A11689DF813
:100D30000720D2000A441268926812881A80574B22
:100D40001A689DF80730DB0013441B685B691B6859
:100D5000524A11689DF80720D2000A44126892682E
:100D600052885A804D4B1A689DF80730DB001344B7
:100D70001B685B691B68494A11689DF80720D2000F
:100D80000A441268926892889A80444B1A689DF8C7
:100D90000730DB0013441B685B691B683F4A11681E
:100DA0009DF80720D2000A4412689268D288DA803F
:100DB00071E09DF80630012B30D1384B1A689DF850
:100DC0000730DB0013441B685B691B681A88344BCF
:100DD0009A80324B1A689DF80730DB0013441B6879
:100DE0005B691B685A882E4BDA802C4B1A689DF879
:100DF0000730DB0013441B685B691B689A88284B2B
:100E00001A81264B1A689DF80730DB0013441B68D3
:100E10005B691B68DA88224B5A812BE01F4B1A68EA
:100E20009DF80730DB0013441B689B681A881C4B35
:100E30009A801A4B1A689DF80730DB0013441B6830
:100E40009B685A88164BDA80144B1A689DF8073055
:100E5000DB0013441B689B689A88114B1A810F4B67
:100E60001A689DF80730DB0013441B689B68DA881A
:100E70000B4B5A81094B1A689DF80730DB0013446D
:100E80001B689B7B012B03D1054B04221A7002E0E7
:100E9000034B03221A7002B0704700BF58020010C3
:100EA0006002001082B0134602468DF807200A4601
:100EB0008DF806208DF805309DF80530012B72D194
:100EC000834B1A689DF80730DB0013441B685B698D
:100ED0001B687F4A11689DF80720D2000A441268F7
:100EE000926812881A807A4B1A689DF80730DB00E6
:100EF00013441B685B691B68754A11689DF80720DD
:100F0000D2000A441268926852885A80704B1A685C
:100F10009DF80730DB0013441B685B691B686C4A53
:100F200011689DF80720D2000A44126892689288DE
:100F30009A80674B1A689DF80730DB0013441B68E2
:100F40005B691B68624A11689DF80720D2000A4459
:100F500012689268D288DA805D4B1A689DF8073073
:100F6000DB0013441B685B691B68594A11689DF8D4
:100F70000720D2000A441268926812891A81544BE1
:100F80001A689DF80730DB0013441B685B691B6817
:100F90004F4A11689DF80720D2000A4412689268EF
:100FA00052895A8191E09DF80630012B48D1484B77
:100FB0001A689DF80730DB0013441B685B691B68E7
:100FC0001A88444B9A80424B1A689DF80730DB0020
:100FD00013441B685B691B685A883E4BDA803C4BA4
:100FE0001A689DF80730DB0013441B685B691B68B7
:100FF0009A88384B1A81364B1A689DF80730DB0007
:1010000013441B685B691B68DA88324B5A81304B8A
:101010001A689DF80730DB0013441B685B691B6886
:101020001A892C4B9A812A4B1A689DF80730DB00ED
:1010300013441B685B691B685A89264BDA8141E0BF
:10104000234B1A689DF80730DB0013441B689B682C
:101050001A88204B9A801E4B1A689DF80730DB00D7
:1010600013441B689B685A881A4BDA80184B1A681D
:101070009DF80730DB0013441B689B689A88154B6A
:101080001A81134B1A689DF80730DB0013441B6864
:101090009B68DA880F4B5A810D4B1A689DF8073010
:1010A000DB0013441B689B681A890A4B9A81084B22
:1010B0001A689DF80730DB0013441B689B685A8947
:1010C000044BDA81034B05221A7002B0704700BF4F
:1010D000580200106002001082B0134602468DF8DC
:1010E00007200A468DF806208DF805309DF805305A
:1010F000012B4CD17D4B1A689DF80730DB0013445F
:101100001B685B691B68794A11689DF80720D2004B
:101110000A441268926812881A80744B1A689DF803
:101120000730DB0013441B685B691B686F4A11685A
:101130009DF80720D2000A441268926852885A80AB
:101140006A4B1A689DF80730DB0013441B685B6923
:101150001B68664A11689DF80720D2000A4412688D
:10116000926892889A80614B1A689DF80730DB007C
:1011700013441B685B691B685C4A11689DF8072073
:10118000D2000A4412689268D288DA80ABE09DF8F7
:101190000630012B33D1554B1A689DF80730DB0020
:1011A00013441B685B691B681A88514B9A804F4B2C
:1011B0001A689DF80730DB0013441B685B691B68E5
:1011C0005A884B4BDA80494B1A689DF80730DB0090
:1011D00013441B685B691B689A88454B1A81434B13
:1011E0001A689DF80730DB0013441B685B691B68B5
:1011F000DA883F4B5A813E4B04221A7073E03B4B16
:101200001A689DF80730DB0013441B68DB7B002B5A
:101210003AD1364B1A689DF80730DB0013441B683F
:101220009B681A88324B9A80304B1A689DF80730B9
:10123000DB0013441B689B685A882D4BDA802B4BCC
:101240001A689DF80730DB0013441B689B689A8876
:10125000274B1A81254B1A689DF80730DB00134491
:101260001B689B68DA88224B5A81204B1A689DF8CC
:101270000730DB0013441B689B689A681C4BDA60DC
:101280001B4B06221A702EE0184B1A689DF8073087
:10129000DB0013441B689B681A88154B9A80134B1C
:1012A0001A689DF80730DB0013441B689B685A8856
:1012B0000F4BDA800D4B1A689DF80730DB001344A2
:1012C0001B689B689A880A4B1A81084B1A689DF81C
:1012D0000730DB0013441B689B68DA88044B5A8193
:1012E000034B04221A7002B0704700BF580200106E
:1012F0006002001000B585B00346ADF806300B4B18
:1013000007221A70094BBDF806201A83074801F01E
:1013100027FC03468DF80F30054BBDF806201A80D8
:101320009DF80F30184605B05DF804FB6002001010
:10133000CCC50720014B1B8818467047CCC5072039
:1013400000B583B003468DF807309DF80730184686
:1013500000F0CAF901F036FC00BF01F027FC03469B
:10136000002BFAD09DF807300A4AD42101FB03F381
:1013700013441B681B69002B09D09DF80730054AF0
:10138000D42101FB03F313441B681B69984703B086
:101390005DF804FB742A001000B587B013460246BE
:1013A0008DF807200A46ADF80420ADF8023000237E
:1013B0008DF817309DF80730CA4AD42101FB03F39A
:1013C00013441B689B88ADF814309DF80730C54A5C
:1013D000D42101FB03F313441B68DB88ADF8123002
:1013E0009DF80730BF4AD42101FB03F313441B6867
:1013F0001A89BDF814301344ADF810309DF8073049
:10140000B84AD42101FB03F313441B685A89BDF881
:1014100012301344ADF80E30BDF80420BDF814307E
:101420009A42C0F05B81BDF80220BDF812309A42AA
:10143000C0F05481BDF80420BDF810309A4200F28B
:101440004D81BDF80220BDF80E309A4200F246816F
:1014500092E09DF807309DF81710A24A0131C900AB
:10146000D42000FB03F30B4413441B689B88ADF8A6
:1014700014309DF807309DF817109A4A0131C900C1
:10148000D42000FB03F30B4413441B68DB88ADF846
:1014900012309DF807309DF81710924A0131C900AB
:1014A000D42000FB03F30B4413441B681A89BDF8D6
:1014B00014301344ADF810309DF807309DF8171024
:1014C000884A0131C900D42000FB03F30B441344C4
:1014D0001B685A89BDF812301344ADF80E30BDF8C0
:1014E0000420BDF814309A4241D3BDF80220BDF863
:1014F00012309A423BD3BDF80420BDF810309A4216
:1015000035D8BDF80220BDF80E309A422FD89DF88C
:1015100007309DF81710734A0131C900D42000FB31
:1015200003F30B4413441B681B69002B1ED09DF86A
:1015300007309DF817106B4A0131C900D42000FB19
:1015400003F30B4413441B79012B0FD19DF8073093
:101550009DF81710634A0131C900D42000FB03F342
:101560000B4413441B681B69984712E011E09DF877
:10157000173001338DF817309DF80730594AD421C0
:1015800001FB03F313441B799DF817209A42FFF4E3
:1015900060AF00238DF8173092E09DF807309DF87A
:1015A0001710504A0B31C900D42000FB03F30B4441
:1015B00013445B689B88ADF814309DF807309DF8A4
:1015C0001710484A0B31C900D42000FB03F30B4429
:1015D00013445B68DB88ADF812309DF807309DF846
:1015E0001710404A0B31C900D42000FB03F30B4411
:1015F00013445B681A89BDF814301344ADF81030F9
:101600009DF807309DF81710364A0B31C900D420D9
:1016100000FB03F30B4413445B685A89BDF8123096
:101620001344ADF80E30BDF80420BDF814309A42D2
:1016300041D3BDF80220BDF812309A423BD3BDF829
:101640000420BDF810309A4235D8BDF80220BDF80C
:101650000E309A422FD89DF807309DF81710214A76
:101660000B31C900D42000FB03F30B4413445B6827
:101670001B69002B1ED09DF807309DF81710194AE2
:101680000B31C900D42000FB03F30B4413441B7A35
:10169000012B0FD19DF807309DF81710114A0B311F
:1016A000C900D42000FB03F30B4413445B681B699F
:1016B000984713E012E09DF8173001338DF817308A
:1016C0009DF80730074AD42101FB03F31344583334
:1016D0001B789DF817209A42FFF45FAF07B05DF8C2
:1016E00004FB00BF742A001000B585B003468DF8D6
:1016F000073000238DF80F307F4B00229A807E4BFD
:101700000022DA807C4BEF221A817B4B40F23F12A1
:101710005A81794B4FF6FF721A83774B09221A7060
:10172000754801F01DFA03468DF80E309DF807301C
:10173000724AD42101FB03F313441B689A886E4B51
:101740009A809DF807306D4AD42101FB03F31344BE
:101750001B68DA88684BDA809DF80730674AD42125
:1017600001FB03F313441B681A89634B1A819DF82C
:101770000730624AD42101FB03F313441B685A89E2
:101780005D4B5A819DF807305C4AD42101FB03F37D
:1017900013441B689A89584B1A83574B09221A70B5
:1017A000554801F0DDF903468DF80E309DF80730FD
:1017B000524AD42101FB03F313441B689B7B012B8A
:1017C00038D19DF807304D4AD42101FB03F313446F
:1017D0001B689A88484B9A809DF80730474AD42165
:1017E00001FB03F313441B68DA88434BDA809DF84E
:1017F0000730424AD42101FB03F313441B681A89C2
:101800003D4B1A819DF807303C4AD42101FB03F37C
:1018100013441B685A89384B5A81374B00221A836C
:10182000354B03221A70344801F09AF903468DF8BB
:101830000E301FE01EE09DF807309DF80F102F4A74
:101840000131C900D42000FB03F30B4413441B797E
:10185000012B0AD19DF807209DF80F30104619463C
:1018600000F04EF803468DF80E309DF80F3001332E
:101870008DF80F309DF80730204AD42101FB03F387
:1018800013441B799DF80F209A42D4D300238DF87E
:101890000F301EE09DF807309DF80F10174A0B31EE
:1018A000C900D42000FB03F30B4413441B7A012B23
:1018B0000AD19DF807209DF80F301046194600F018
:1018C00027FA03468DF80E309DF80F3001338DF85E
:1018D0000F309DF80730094AD42101FB03F313446C
:1018E00058331B789DF80F209A42D3D39DF80E30C1
:1018F000184605B05DF804FB7C020010742A001045
:1019000030B591B002460B468DF817208DF8163091
:101910009DF817309DF81610824A0131C900D42075
:1019200000FB03F30B4413441B689B88ADF83C3069
:101930009DF817309DF816107A4A0131C900D4205D
:1019400000FB03F30B4413441B68DB88ADF83A300B
:101950009DF817309DF81610724A0131C900D42045
:1019600000FB03F30B4413441B681A89BDF83C3099
:101970001344ADF838309DF817309DF81610694AB9
:101980000131C900D42000FB03F30B4413441B684E
:101990005A89BDF83A301344ADF836309DF8173007
:1019A0009DF816105F4A0131C900D42000FB03F3F3
:1019B0000B4413441B689A885B4B9A809DF8173040
:1019C0009DF81610574A0131C900D42000FB03F3DB
:1019D0000B4413441B68DA88534BDA809DF81730A8
:1019E0009DF816104F4A0131C900D42000FB03F3C3
:1019F0000B4413441B681A894B4B1A819DF817300E
:101A00009DF81610474A0131C900D42000FB03F3AA
:101A10000B4413441B685A89434B5A819DF8173075
:101A20009DF816103F4A0131C900D42000FB03F392
:101A30000B4413441B689A893B4B1A833A4B092287
:101A40001A70394801F08CF803468DF83F309DF844
:101A500017309DF81610334A0131C900D42000FB1D
:101A600003F30B4413441B68DB69002B5ED09DF825
:101A700017309DF816102B4A0131C900D42000FB05
:101A800003F30B4413441B689A88274B9A809DF8F4
:101A900017309DF81610234A0131C900D42000FBED
:101AA00003F30B4413441B68DA881F4BDA809DF85C
:101AB00017309DF816101B4A0131C900D42000FBD5
:101AC00003F30B4413441B681A89174B1A819DF8C2
:101AD00017309DF81610134A0131C900D42000FBBD
:101AE00003F30B4413441B685A890F4B5A819DF82A
:101AF00017309DF816100B4A0131C900D42000FBA5
:101B000003F30B4413441B68DA69074BDA60064B96
:101B100006221A70044801F023F803468DF83F307E
:101B200091E000BF742A00107C0200109DF817306D
:101B30009DF81610744A0131C900D42000FB03F34C
:101B40000B4413441B685B69002B7CD09DF8173055
:101B50009DF816106C4A0131C900D42000FB03F334
:101B60000B4413441B685D699DF817309DF81610EF
:101B7000654A0131C900D42000FB03F30B44134430
:101B80001B681C7EBDF83C00BDF83A10BDF838203B
:101B9000BDF836300095019407AC029400F0C0FA0D
:101BA00003468DF83F309DF83F30002B4BD1BDF8F8
:101BB0001C30ADF82030BDF81E30ADF822309DF855
:101BC00017309DF81610504A0131C900D42000FB8F
:101BD00003F30B4413441B685B6909939DF81730AA
:101BE0009DF81610484A0131C900D42000FB03F3C8
:101BF0000B4413441B681B7E8DF828309DF817306A
:101C00009DF81610404A0131C900D42000FB03F3AF
:101C10000B4413441B685B8B0B939DF817309DF8A6
:101C20001610394A0131C900D42000FB03F30B44DC
:101C300013441B689B890C9308AB184600F01CFCEE
:101C400003468DF83F309DF817309DF816102E4A48
:101C50000131C900D42000FB03F30B4413441B687B
:101C60009B7B012B4BD19DF817309DF81610264A0F
:101C70000131C900D42000FB03F30B4413441B685B
:101C80009A88224B9A809DF817309DF816101E4AAC
:101C90000131C900D42000FB03F30B4413441B683B
:101CA000DA881A4BDA809DF817309DF81610164A1C
:101CB0000131C900D42000FB03F30B4413441B681B
:101CC0001A89124B1A819DF817309DF816100E4A8A
:101CD0000131C900D42000FB03F30B4413441B68FB
:101CE0005A890A4B5A81094B00221A83074B032257
:101CF0001A70064800F034FF03468DF83F309DF817
:101D00003F30184611B030BD742A00107C0200101C
:101D100030B591B002460B468DF817208DF816307D
:101D20009DF817309DF81610824A0B31C900D42057
:101D300000FB03F30B4413445B689B88ADF83C3015
:101D40009DF817309DF816107A4A0B31C900D4203F
:101D500000FB03F30B4413445B68DB88ADF83A30B7
:101D60009DF817309DF81610724A0B31C900D42027
:101D700000FB03F30B4413445B681A89BDF83C3045
:101D80001344ADF838309DF817309DF81610694AA5
:101D90000B31C900D42000FB03F30B4413445B68F0
:101DA0005A89BDF83A301344ADF836309DF81730F3
:101DB0009DF816105F4A0B31C900D42000FB03F3D5
:101DC0000B4413445B689A885B4B9A809DF81730EC
:101DD0009DF81610574A0B31C900D42000FB03F3BD
:101DE0000B4413445B68DA88534BDA809DF8173054
:101DF0009DF816104F4A0B31C900D42000FB03F3A5
:101E00000B4413445B681A894B4B1A819DF81730B9
:101E10009DF81610474A0B31C900D42000FB03F38C
:101E20000B4413445B685A89434B5A819DF8173021
:101E30009DF816103F4A0B31C900D42000FB03F374
:101E40000B4413445B689A893B4B1A833A4B092233
:101E50001A70394800F084FE03468DF83F309DF833
:101E600017309DF81610334A0B31C900D42000FBFF
:101E700003F30B4413445B68DB69002B5ED09DF8D1
:101E800017309DF816102B4A0B31C900D42000FBE7
:101E900003F30B4413445B689A88274B9A809DF8A0
:101EA00017309DF81610234A0B31C900D42000FBCF
:101EB00003F30B4413445B68DA881F4BDA809DF808
:101EC00017309DF816101B4A0B31C900D42000FBB7
:101ED00003F30B4413445B681A89174B1A819DF86E
:101EE00017309DF81610134A0B31C900D42000FB9F
:101EF00003F30B4413445B685A890F4B5A819DF8D6
:101F000017309DF816100B4A0B31C900D42000FB86
:101F100003F30B4413445B68DA69074BDA60064B42
:101F200006221A70044800F01BFE03468DF83F306D
:101F300091E000BF742A00107C0200109DF8173059
:101F40009DF81610744A0B31C900D42000FB03F32E
:101F50000B4413445B685B69002B7CD09DF8173001
:101F60009DF816106C4A0B31C900D42000FB03F316
:101F70000B4413445B685D699DF817309DF816109B
:101F8000654A0B31C900D42000FB03F30B44134412
:101F90005B681C7EBDF83C00BDF83A10BDF83820E7
:101FA000BDF836300095019407AC029400F0B8F803
:101FB00003468DF83F309DF83F30002B4BD1BDF8E4
:101FC0001C30ADF82030BDF81E30ADF822309DF841
:101FD00017309DF81610504A0B31C900D42000FB71
:101FE00003F30B4413445B685B6909939DF8173056
:101FF0009DF81610484A0B31C900D42000FB03F3AA
:102000000B4413445B681B7E8DF828309DF8173015
:102010009DF81610404A0B31C900D42000FB03F391
:102020000B4413445B685B8B0B939DF817309DF852
:102030001610394A0B31C900D42000FB03F30B44BE
:1020400013445B689B890C9308AB184600F014FAA4
:1020500003468DF83F309DF817309DF816102E4A34
:102060000B31C900D42000FB03F30B4413445B681D
:102070009B7B012B4BD19DF817309DF81610264AFB
:102080000B31C900D42000FB03F30B4413445B68FD
:102090009A88224B9A809DF817309DF816101E4A98
:1020A0000B31C900D42000FB03F30B4413445B68DD
:1020B000DA881A4BDA809DF817309DF81610164A08
:1020C0000B31C900D42000FB03F30B4413445B68BD
:1020D0001A89124B1A819DF817309DF816100E4A76
:1020E0000B31C900D42000FB03F30B4413445B689D
:1020F0005A890A4B5A81094B00221A83074B032243
:102100001A70064800F02CFD03468DF83F309DF80C
:102110003F30184611B030BD742A00107C02001008
:1021200000B585B0ADF80600ADF80410ADF802209A
:10213000ADF8003000238DF80F3006980AF07EF8D5
:1021400003468DF80F309DF81C30012B29D0022B4F
:102150004DD0002B71D1BDF80220BDF80630D21A47
:102160009DF80F30DB009A4219DBBDF80020BDF866
:102170000430D31A072B12DD089BBDF806201A8005
:10218000BDF80420BDF800301344DA0F13445B108F
:102190009BB2033B9AB2089B5A8000234EE0012376
:1021A0004CE0BDF80220BDF80630D21A9DF80F3081
:1021B000DB009A4219DBBDF80020BDF80430D31AC9
:1021C0000F2B12DD089BBDF806201A80BDF80420F5
:1021D000BDF800301344DA0F13445B109BB2073B89
:1021E0009AB2089B5A80002328E0012326E0BDF81C
:1021F0000220BDF80630D21A9DF80F301B019A421A
:1022000019DBBDF80020BDF80430D31A172B12DDFE
:10221000089BBDF806201A80BDF80420BDF80030E8
:102220001344DA0F13445B109BB20B3B9AB2089B2A
:102230005A80002302E0012300E00123184605B084
:102240005DF804FB30B593B0069101468DF81F1080
:10225000ADF81C20ADF816309DF81F20834B53F8C5
:1022600022301B89ADF824309DF81F207F4B53F896
:1022700022305B89ADF826309DF81F207B4B53F848
:1022800022309B88ADF82C309DF81F20774B53F8F7
:102290002230DB88ADF82E30BDF82430BDF8262082
:1022A00002FB03F31A4640F6B8339A4201D90723DA
:1022B000D8E0BDF82C00BDF82E10BDF82C20BDF8DC
:1022C000243013449AB2BDF82E40BDF82630234482
:1022D0009BB2BDF81640E4B2069D009501940AAC8D
:1022E0000294FFF71DFF03468DF847309DF84730F5
:1022F000002B01D00723B5E0BDF82C00BDF82E104F
:10230000BDF82420BDF82630594C009440F6B8346E
:10231000019404F02FFD03468DF847309DF81F20EF
:10232000524B53F822309A88524B9A809DF81F20C6
:102330004E4B53F82230DA884E4BDA809DF81F203E
:102340004A4B53F822301A894A4B1A819DF81F20B4
:10235000464B53F822305A89464B5A819DF81F202C
:10236000424B53F822309A89424B1A83414B09223F
:102370001A70404800F0F4FB03468DF84730BDF872
:102380002830ADF83030BDF82A30ADF83230069B39
:102390000D93BDF81630DBB28DF83830BDF85830EB
:1023A0000F939DF81F20314B53F822309B891093D7
:1023B0000CAB184600F060F803468DF847309DF8E6
:1023C0001F202A4B53F822309B7B012B2FD19DF8E5
:1023D0001F20264B53F822309A88264B9A809DF86E
:1023E0001F20224B53F82230DA88224BDA809DF8E6
:1023F0001F201E4B53F822301B89013B9AB21D4B04
:102400001A819DF81F20194B53F822305B89013B3C
:102410009AB2184B5A81174B00221A83154B03228C
:102420001A70144800F09CFB03468DF8473000F00A
:10243000C9FBBDF81C3018460AF06AFABDF82C003A
:10244000BDF82E10BDF82420BDF82630084C0094AD
:1024500040F6B834019404F0D9FC03468DF84730B7
:102460009DF84730184613B030BD00BF98020010E9
:10247000AC0200107C02001000B585B00190114B39
:1024800008221A700F4B019A12685A60019B5A6811
:102490000C4B9A60019B1A7A0A4B1A73019BDA68FB
:1024A000084B1A61019B1A69064B5A61054800F0F6
:1024B00057FB03468DF80F309DF80F30184605B0D6
:1024C0005DF804FB7C02001082B0019000910E4B7D
:1024D0001B78092B14D80C4B1B780C4AD42101FB18
:1024E00003F31344009A1A60074B1A78019B1A7081
:1024F000054B1B780133DAB2034B1A70002300E05E
:102500000123184602B070471C1A0010742A0010EC
:1025100000B587B00346029101928DF80F30002379
:102520008DF817309DF80F301E4AD42101FB03F3BC
:1025300013441B798DF817309DF81730092B2BD8D1
:102540009DF80F309DF81710164A0131C900D420AC
:1025500000FB03F30B441344019A1A60029B9DF89D
:1025600017201A709DF80F300E49D42202FB03F297
:102570000A4412790132D2B20A49D42000FB03F393
:102580000B441A719DF80F209DF81730104619461C
:1025900000F0B2F8002300E00123184607B05DF810
:1025A00004FB00BF742A001000B587B003460291F7
:1025B00001928DF80F3000238DF817309DF80F3001
:1025C0001F4AD42101FB03F3134458331B788DF8C1
:1025D00017309DF817300E2B2DD89DF80F309DF831
:1025E0001710174A0B31C900D42000FB03F30B442A
:1025F0001344019A5A60029B9DF817201A709DF8A7
:102600000F300F49D42202FB03F20A4458321278E9
:102610000132D2B20A49D42000FB03F30B445833F1
:102620001A709DF80F209DF817301046194600F0DB
:102630007FF8002300E00123184607B05DF804FB93
:10264000742A001082B0019000910D4B1B78042B6E
:1026500012D80B4B1B781A460A4B009943F82210EC
:10266000074B1A78019B1A70054B1B780133DAB2BD
:10267000034B1A70002300E00123184602B0704794
:102680001D1A00109802001082B002460B468DF809
:1026900007208DF806309DF807309DF80610074A90
:1026A0000131C900D42000FB03F30B441344002282
:1026B0001A710023184602B0704700BF742A001038
:1026C00082B002460B468DF807208DF806309DF843
:1026D00007309DF80610074A0B31C900D42000FBD3
:1026E00003F30B44134400221A720023184602B06D
:1026F000704700BF742A001082B002460B468DF866
:1027000007208DF806309DF807309DF80610074A1F
:102710000131C900D42000FB03F30B441344012210
:102720001A710023184602B0704700BF742A0010C7
:1027300082B002460B468DF807208DF806309DF8D2
:1027400007309DF80610074A0B31C900D42000FB62
:1027500003F30B44134401221A720023184602B0FB
:10276000704700BF742A001084B0019000910023CC
:102770008DF80F30019B002B01D1022347E0009B15
:10278000002B01D1022342E0009B9B68002B01D16A
:1027900002233CE0009B1B7C012B05D1009B5B6965
:1027A000002B01D1022332E01A4B1B78132B2DD8BA
:1027B00000238DF80F3025E09DF80F30164ADB001E
:1027C00013445B79002B18D19DF80F20124B009910
:1027D00043F83210019B9DF80F201A709DF80F30BE
:1027E0000D4ADB00134401225A710A4B1B78013356
:1027F000DAB2084B1A70002309E09DF80F3001335C
:102800008DF80F309DF80F30132BD5D907231846BC
:1028100004B07047C01A0010201A001082B003469E
:102820008DF807309DF80730132B07D89DF8073037
:102830000C4ADB0013445B79012B01D001230DE02E
:102840009DF80730074ADB00134400225A71064BFB
:102850001B78013BDAB2044B1A700023184602B011
:10286000704700BF201A0010C01A001082B0034643
:102870008DF807309DF80730132B07D89DF80730E7
:10288000074ADB0013445B79012B01D0002304E0ED
:102890009DF80720024B53F83230184602B07047BB
:1028A000201A001082B003468DF807309DF80730DB
:1028B000DA00024B1344184602B07047201A001089
:1028C000014B1B7818467047C01A001008B5FEF778
:1028D00031FD03461A46024B1A800023184608BDF4
:1028E000C41A001000B583B000238DF80730002310
:1028F0008DF806301B4B1B78012B2FD11EE09DF865
:10290000072019491346DB009B1A9B000B441B78D8
:102910008DF806309DF80620144B53F822109DF8D0
:1029200007201346DB009B1A9B000F4A13441846EE
:1029300088479DF8073001338DF807300C4B1B7822
:102940009DF807209A4203D29DF80730132BD6D961
:10295000044B00221A70064B00221A7003B05DF877
:1029600004FB00BFC61A0010C81A0010E4C50720F7
:10297000F81C001000B583B00190019B1B8B18461A
:1029800002F00EF9019B9B881846019BDB881946D3
:10299000019B1B891A46019B5B8902F07DFB03B0FA
:1029A0005DF804FB00B583B00190019B1B8B1846BA
:1029B00002F0F6F8019B9B881946019BDB881A46BA
:1029C000019B1B89084611461A4602F0DBFB03B047
:1029D0005DF804FB00B583B00190019B9B8818460D
:1029E000019BDB881946019B1B891A46019B1B8BA7
:1029F00002F078F903B05DF804FB00BF10B582B0B7
:102A00000190019B1B8B184602F0CAF8019B9B8822
:102A10001846019BDB881946019B9B881A46019B3F
:102A20001B8913441A46019BDB881C46019B5B896A
:102A3000234402F033F902B010BD00BF10B584B0DA
:102A40000390039B9B881846039BDB881946039BD6
:102A50009B881A46039B1B8913441A46039BDB88F9
:102A60001C46039B5B892344039C248B009402F047
:102A7000A3F904B010BD00BF30B585B00390039B2F
:102A80001B8B184602F08CF8039B9B881846039B0F
:102A9000DB881946039B1B891A46039B5B89039CB1
:102AA000A4892546039CE4890095019403F0FAFD6E
:102AB00005B030BD00B583B00190019B1A8B054B6A
:102AC0001A80044B1B88184601F080FE03B05DF8A5
:102AD00004FB00BFC41A001030B585B00390039BFF
:102AE0009B881846039BDB881946039B9A68039BC7
:102AF0001B7B039C2569039C64690095019402F08B
:102B000015FF05B030BD00BF10B584B00390039B26
:102B10009888039BD988039B9A88039B1B8913443D
:102B20009AB2039BDC88039B5B8923449BB2039C82
:102B3000248B009401F0FCFE04B010BD10B584B0ED
:102B40000390039BD868039B9988039BDA88039BB7
:102B50001B89039C6489009400F03AFA04B010BD0C
:102B600000B583B001900F4B1B78132B01D90723BD
:102B700014E00C4B1B781A461346DB009B1A9B0093
:102B8000094A1344184601991C2209F0CFFB054B52
:102B90001B780133DAB2034B1A700023184603B0D6
:102BA0005DF804FBF81C0010C81A0010044B1B78D9
:102BB000002B14BF00230123DBB21846704700BF6F
:102BC000C61A0010014B01221A707047C61A001075
:102BD00080B58EB000AF7860396007F110031846F9
:102BE0007968012207F070FA034687F8373097F8C2
:102BF0003730002B20D107F1100207F10C031046EB
:102C000039681E2207F0D2FB034687F8373097F861
:102C10003730002B02D1FB68002B06D107F11003DF
:102C2000184607F03FFF012307E007F1100318469D
:102C300007F038FF002300E0012318463837BD466F
:102C400080BD00BF80B59CB000AF786013460A46D7
:102C50007A803B8007F1140318467968012207F057
:102C600033FA034687F8673097F86730002B40F057
:102C7000D48007F1140107F1380207F11003084668
:102C800011461E2207F092FB034687F8673097F83B
:102C90006730002B02D13B69002B06D107F11403EA
:102CA000184607F0FFFE0123B8E0B7F85430DB0800
:102CB0009BB23B66D7F84E30013BFB65D7F84A30F4
:102CC0003A6E02FB03F303F00303C3F10403BB6694
:102CD000BB6E042B01D10023BB660023A7F86C3028
:102CE0008DE00023A7F86E3071E0B7F86C30FA6D14
:102CF000D31AD7F84A20396E01FB02F1BA6E0A44A2
:102D000002FB03F2B7F86E30396E01FB03F3134494
:102D1000BB65D7F84230BA6D1344BB6507F11403A5
:102D20001846B96D07F048FF034687F8673097F8F3
:102D30006730002B06D007F11403184607F0B2FEE7
:102D400001236BE007F1140107F10C0207F11003F6
:102D5000084611463A6E07F029FB034687F86730AC
:102D600097F86730002B02D13B69002B06D107F1A1
:102D70001403184607F096FE01234FE03B6EDBB2CA
:102D800007F10C021046194600F018FA0346A7F89E
:102D900056307A88B7F86E30134499B23A88B7F84B
:102DA0006C3013449AB2B7F85630084611461A46AA
:102DB00001F03AFD3A88B7F86C301344B3F5A17FBF
:102DC00000DB0AE0B7F86E300133A7F86E30B7F8D1
:102DD0006E20D7F84A309A4287D37A88B7F86E3097
:102DE0001344F12B12DC3A88B7F86C301344B3F576
:102DF000A17F0BDAB7F86C300133A7F86C30B7F865
:102E00006C20D7F84E309A42FFF46BAF07F11403F1
:102E1000184607F047FE002300E0012318467037EC
:102E2000BD4680BD80B59CB000AF7860396007F1C9
:102E3000140318467968012207F046F9034687F81B
:102E4000673097F86730002B40F0BC8007F1140121
:102E500007F1380207F11003084611461E2207F059
:102E6000A5FA034687F8673097F86730002B02D140
:102E70003B69002B06D107F11403184607F012FE38
:102E80000123A0E0B7F85430DB089BB23B66D7F8CB
:102E90004E30013BFB65D7F84A303A6E02FB03F334
:102EA00003F00303C3F10403BB66BB6E042B01D123
:102EB0000023BB660023A7F86C3076E00023A7F858
:102EC0006E3067E0B7F86C30FA6DD31AD7F84A2045
:102ED000396E01FB02F1BA6E0A4402FB03F2B7F845
:102EE0006E30396E01FB03F31344BB65D7F84230F3
:102EF000BA6D1344BB6507F114031846B96D07F0AA
:102F00005BFE034687F8673097F86730002B06D0E2
:102F100007F11403184607F0C5FD012353E007F13C
:102F2000140107F10C0207F11003084611463A6E2E
:102F300007F03CFA034687F8673097F86730002BB4
:102F400002D13B69002B06D107F11403184607F0A4
:102F5000A9FD012337E03B6EDBB207F10C021046FE
:102F6000194600F02BF90346A7F85630B7F86C3035
:102F7000D7F84E2002FB03F2B7F86E3013445B0023
:102F80003A681344B7F856201A80B7F86E30013308
:102F9000A7F86E30B7F86E20D7F84A309A4291D32E
:102FA000B7F86C300133A7F86C30B7F86C20D7F85D
:102FB0004E309A4282D307F11403184607F072FD8F
:102FC000002300E0012318467037BD4680BD00BFD6
:102FD00080B586B000AFF86079813A81FB807A894C
:102FE000FB8813449BB29BB2013B9BB29AB23989D6
:102FF0003B8C0B449BB29BB2013B9BB29BB278894A
:10300000398901F053FB7A893B891046194601F052
:10301000B3FB222000F0F8FAFB883A8C02FB03F3A2
:103020003B6100237B610AE07B695B00FA68134423
:103030001B88184600F054FB7B6901337B617A6979
:103040003B699A42F0D301F05FFC1837BD4680BD62
:1030500080B59AB000AF786013460A467A803B800C
:1030600007F1100318467968012207F02DF803468E
:1030700087F8633097F86330002B40F09A8007F1AF
:10308000100107F1340207F10C03084611461E2215
:1030900007F08CF9034687F8633097F86330002B0C
:1030A00002D1FB68002B06D107F11003184607F088
:1030B000F9FC01237EE0B7F85030DB089BB2FB65DA
:1030C000D7F84A30013BBB65D7F84630FA6D02FBB2
:1030D00003F303F00303C3F104037B667B6E042B4D
:1030E00001D100237B667A88D7F846309A4204D211
:1030F0003A88D7F84A309A4201D301235AE03B88F4
:10310000BA6DD31AD7F84620F96D01FB02F17A6E39
:103110000A4402FB03F27B88F96D01FB03F31344BD
:103120007B65D7F83E307A6D13447B6507F1100359
:103130001846796D07F040FD034687F8633097F82D
:103140006330002B06D007F11003184607F0AAFCE5
:1031500001232FE007F1100107F1080207F10C032A
:1031600008461146032207F021F9034687F8633029
:1031700097F86330002B02D1FB68002B06D107F1D2
:103180001003184607F08EFC012313E0FB6DDBB241
:1031900007F108021046194600F010F80346A7F898
:1031A000523007F11003184607F07CFCB7F8523094
:1031B00000E0012318466837BD4680BD80B584B065
:1031C00000AF78600B46FB70FB78022B02D0032B1C
:1031D00011D028E07B6801331B781B029AB27B6810
:1031E0001B7813439BB2BB81BB89184603F054FE86
:1031F0000346FB811AE07B6802331B78DB08DBB2F5
:10320000DB029AB27B6801331B789B08DBB25B015F
:103210009BB213439AB27B681B78DB08DBB2134383
:103220009BB2FB8102E00023FB8100BFFB891846B3
:103230001037BD4680BD00BF80B489B000AFF860D4
:10324000B9603B601346FB710023FB6107E03A68FD
:10325000FB69134400221A70FB690133FB61FB69AF
:10326000352BF4D93B6842221A703B6801334D225A
:103270001A70FB79FA6802FB03F39B005B09BB61E0
:10328000BB68BA6902FB03F37B61BB69BA6802FBE6
:1032900003F336333B613B6802333A69D2B21A70AA
:1032A0003B6803333A69120AD2B21A703B6804339E
:1032B0003A69120CD2B21A703B6805333A69120EA1
:1032C000D2B21A703B680A3336221A703B680E334A
:1032D00028221A703B681233FA68D2B21A703B681F
:1032E0001333FA68120AD2B21A703B681633BA68FE
:1032F000D2B21A703B681733BA68120AD2B21A7087
:103300003B681A3301221A703B681C33FA791A7031
:103310003B6822337A69D2B21A703B6823337A69E8
:10332000120AD2B21A703B6824337A69120CD2B2F4
:103330001A703B6825337A69120ED2B21A703B6854
:103340002633D5221A703B68273314221A703B6843
:103350002A333B221A703B682B3313221A7024370E
:10336000BD465DF8047B704790B5ADF5217D02AF99
:103370000446084611461A46BB1D1C803B1D18809A
:10338000BB1C19803B461A8007F5177300221A6090
:10339000043300221A60043300221A800233002210
:1033A0001A7001330023C7F8583207F5FE7237232D
:1033B000104600211A460EF0A3FA07F108031A4638
:1033C0004FF4FA73104600211A460EF099FABB1D0D
:1033D0001B880133A7F870320023A7F86E32002350
:1033E000A7F86C32BB1C1B88A7F86A320023A7F829
:1033F00068320023A7F876320023A7F8743200233E
:10340000A7F87232B7F876325A1CA7F8762207F579
:10341000177210465B491A4608F00AFD07F50D724F
:1034200007F5177310461946122206F04DFE0346A3
:1034300087F86732D7F84032002B06D100BF97F8E3
:103440006732002B40F08E8005E007F50D731846BB
:1034500007F028FBD6E797F867324B48194608F083
:10346000D9FBBB1C19883B461A8807F5FE73084632
:1034700011461022FFF7E0FE07F50D7107F5FE7209
:1034800007F5167308461146362207F0D1F80346B1
:1034900087F867323A1D3B4612881B881344A7F809
:1034A000743259E0B7F87432A7F86C32B7F86C325E
:1034B000A7F86E32B7F87002B7F86E12B7F86A2242
:1034C000B7F86832D7F888420094B7F86A42019496
:1034D00003F050FC0023A7F8723223E0B7F87232F1
:1034E0005B00B7F872225200D7F888120A4412889B
:1034F000D1B207F10802D154B7F872325B00013340
:10350000B7F872225200D7F888120A441288120AB9
:1035100092B2D1B207F10802D154B7F87232013336
:10352000A7F87232BB1CB7F872221B889A42D5D911
:10353000BB1C1B885B001A4607F50D7007F10801DC
:1035400007F5167307F074F8034687F86732B7F883
:103550007432013BA7F874323B1DB7F874221B8804
:103560009A429FD807F50D73184607F09BFA034659
:1035700087F8673297F86732184607F51F77BD4618
:1035800090BD00BFC8500100D850010080B483B086
:1035900000AF78607B68002B01D1022308E07B68D4
:1035A0001A68064B1A607B685A68044B5A600023FD
:1035B00018460C37BD465DF8047B7047BC320010DE
:1035C00080B400AF054B1A68054B1344034A526898
:1035D0001A60BD465DF8047B704700BFBC32001026
:1035E00018C0092080B400AF054B1A68054B13447E
:1035F000034A52681A60BD465DF8047B704700BFFD
:10360000BC3200101CC0092080B483B000AF034658
:10361000FB802E4B1B88012B50D12D4B9A6C2D4BD0
:1036200013442B4AD26C1A60294B1A6C294B134451
:10363000274A526C1A60264B9A6D274B1344244A32
:10364000D26D1A60224B1A6D234B1344204A526DDF
:103650001A601F4B1A68214B1344FA88120A92B25F
:10366000D2B21A701A4B1A6D1A4B1344184A526D83
:103670001A60174B1A6D184B1344154A526D1A6095
:10368000134B1A68154B1344FA88D2B21A70104BB8
:103690001A6D104B13440E4A526D1A600C4B1A6D82
:1036A0000D4B13440A4A526D1A60094B1A6C094BB0
:1036B0001344074A526C1A60002300E005231846A1
:1036C0000C37BD465DF8047B704700BFFC1C001042
:1036D000241D00101CC0092018C0092014C0092096
:1036E00080B483B000AF0346FB802E4B1B88012BB8
:1036F00050D12D4B1A6C2D4B13442B4A526C1A602F
:10370000294B9A6C2A4B1344274AD26C1A60264BD9
:103710009A6D274B1344244AD26D1A60224B1A6DBE
:10372000234B1344204A526D1A601F4B1A68214BD9
:103730001344FA88120A92B2D2B21A701A4B1A6D56
:103740001A4B1344184A526D1A60174B1A6D184BD6
:103750001344154A526D1A60134B1A68154B1344E3
:10376000FA88D2B21A70104B1A6D104B13440E4ADD
:10377000526D1A600C4B1A6D0D4B13440A4A526D70
:103780001A60094B1A6C0A4B1344074A526C1A60B0
:10379000002300E0052318460C37BD465DF8047B86
:1037A000704700BFFC1C0010241D00101CC0092025
:1037B00018C0092014C0092080B483B000AF0023D2
:1037C000FB710023BB710023BB806C4B1B6803F1B2
:1037D000005303F51C231A46684B1B6803F1005382
:1037E00003F51C231968654B5868644BDB68184364
:1037F000624B5B691843614BDB6918435F4B5B6A43
:1038000018435E4BDB6A18435C4B5B6B18435B4BA6
:10381000DB6B0343DB430B401360594B1B88012BCD
:1038200040F0A480554B1A6C564B1344534A526CCB
:103830001A60524B9A6C544B1344504AD26C1A6023
:103840004E4B1A6D504B13444C4A526D1A604B4B01
:103850009A6D4D4B1344494AD26D1A60474B9A6D8D
:10386000484B1344454AD26D1A60444B9A6D464BFF
:103870001344424AD26D1A60404B1A68434B1344BA
:103880001B78FB713D4B9A6D3E4B13443B4AD26D06
:103890001A603A4B9A6D3C4B1344384AD26D1A6009
:1038A000364B1A68394B13441B78BB71334B9A6DF6
:1038B000344B1344314AD26D1A60304B9A6D324BFF
:1038C00013442E4AD26D1A602C4B1A682F4B1344A6
:1038D0001B78FB71294B9A6D2A4B1344274AD26DF2
:1038E0001A60264B9A6D284B1344244AD26D1A60F5
:1038F000224B1A68254B13441B78BB711F4B1A6C63
:10390000214B13441D4A526C1A60FB791B029AB278
:10391000BB799BB213439BB2BB80184B1B6803F16E
:10392000005303F51C231A46144B1B6803F1005384
:1039300003F51C231968114B5868104BDB681843BA
:103940000E4B5B6918430D4BDB6918430B4B5B6AED
:1039500018430A4BDB6A1843084B5B6B1843074B51
:10396000DB6B03430B431360BB8800E00523184661
:103970000C37BD465DF8047B704700BF241D001066
:10398000FC1C00101CC0092018C0092014C009200C
:1039900080B584B000AFC7E90001D7E900011CA3DE
:1039A000D3E900230CF07CFF02460B461046194673
:1039B0000DF010FA0346FB60FA68D108164BA3FB22
:1039C00001039B084FF4B47101FB03F3D31AFB60AE
:1039D000FA685108114BA3FB01035B095A2101FB53
:1039E00003F3D31A0E4AA2FB0313DA080D4B53F864
:1039F0002230BB60FB68B42B02D9BB685B4200E09D
:103A0000BB6818461037BD4680BD00BFAFF30080CD
:103A100012143FC6DCA54C40176CC116B7600BB63C
:103A2000CDCCCCCCF475010080B584B000AFC7E933
:103A30000001D7E900011EA3D3E900230CF030FFF9
:103A400002460B46104619460DF0C4F90346FB60CA
:103A5000FA68D108184BA3FB01039B084FF4B4711B
:103A600001FB03F3D31AFB60FA685108134BA3FB65
:103A700001035B095A2101FB03F3D31A104AA2FB8D
:103A80000313DA080F4B53F82230BB60FB685A2B44
:103A900006D9FB68B3F5877F02D2BB685B4200E0C2
:103AA000BB6818461037BD4680BD00BFAFF300802D
:103AB00012143FC6DCA54C40176CC116B7600BB69C
:103AC000CDCCCCCC1C76010080B487B000AFF860C0
:103AD000B9607A603B60BB681A683B681B689A42B1
:103AE00013DD3B681B687B61BB681A683B681A6022
:103AF000BB687A691A607B681B687B61FB681A681F
:103B00007B681A60FB687A691A603B681A687B6A8E
:103B10001B689A4213DD3B681B687B617B6A1A68ED
:103B20003B681A607B6A7A691A603B6A1B687B6132
:103B30007B681A683B6A1A607B687A691A60BB689E
:103B40001A683B681B689A4213DD3B681B687B61FF
:103B5000BB681A683B681A60BB687A691A607B6840
:103B60001B687B61FB681A687B681A60FB687A696E
:103B70001A60002318461C37BD465DF8047B704769
:103B800090B58BB002AFF860B9607A603B602F4BA4
:103B90001B68013BFB61FA687B689A4228D13A684E
:103BA000BB689A4238BF1346BB613A68BB689A4209
:103BB00028BF13467B61FB689AB2FB695B089BB226
:103BC000D31A98B2BB6999B2FB699AB2FB695B08D8
:103BD0009BB2D31A9AB27B689BB213449AB27B69A8
:103BE0009BB21B4C2468A4B2009400F0A1FE27E015
:103BF0007A68FB689A4238BF1346BB617A68FB68F3
:103C00009A4228BF13467B61BB6998B2BB689AB2DF
:103C1000FB695B089BB2D31A99B27B699AB2FB69C4
:103C20009CB2FB695B089BB2E31A9CB23B689BB2F7
:103C300023449BB2064C2468A4B2009400F078FEA2
:103C4000002318462437BD4690BD00BF0CC6072090
:103C5000041D001090B5A3B002AFF860B9607A609F
:103C60003B60BB68BB633B687B63D7F894303B63C6
:103C7000FB68FB627B68BB62D7F890307B620023F5
:103C800087F86F30002387F86E3007F12C0007F1BA
:103C9000380107F1280207F1340307F124040094E6
:103CA00007F130040194FFF70FFFFB6AFB67BB6B62
:103CB000BB67BB6ABB667B6B7B66FB6A7B67BB6B68
:103CC0003B677B6A3B663B6BFB65FA6FBB6ED31A47
:103CD000002BB8BF5B42BB65FA6FBB6E9A4201DA3C
:103CE000012301E04FF0FF337B65BA6F7B6ED31A7F
:103CF000002BB8BF5B425B423B65BA6F7B6E9A425A
:103D000001DA012301E04FF0FF33FB64BA6D3B6D34
:103D100013443B627A6F3B6ED31A002BB8BF5B42F1
:103D2000BB647A6F3B6E9A4201DA012301E04FF0E7
:103D3000FF337B643A6FFB6DD31A002BB8BF5B4235
:103D40005B423B643A6FFB6D9A4201DA012301E06A
:103D50004FF0FF33FB63BA6C3B6C1344FB617B6B2E
:103D6000BA6F9A4218D17B6B3A6F9A4214D100BF56
:103D7000BB6AFB677B6BBB677B6ABB663B6B7B6627
:103D8000FA6FBB6ED31A002BB8BF5B42BB65FA6FEC
:103D9000BB6E9A425CDA59E097F86F30002B1DD168
:103DA0003B6A5B00BB61BA693B6D9A4207DB3A6ACA
:103DB0003B6D13443B62FA6F7B6D1344FB67BA693A
:103DC000BB6D9A420ADC3A6ABB6D13443B62BA6F20
:103DD000FB6C1344BB67012387F86F3097F86E3094
:103DE000002B1DD1FB695B007B617A693B6C9A42B9
:103DF00007DBFA693B6C1344FB617A6F7B6C1344FD
:103E00007B677A69BB6C9A420ADCFA69BB6C134423
:103E1000FB613A6FFB6B13443B67012387F86E30FD
:103E200097F86F30002B10D097F86E30002B0CD025
:103E3000F86FB96F7A6F3B6FFFF7A2FE002387F828
:103E40006F30002387F86E3089E788E7012301E0AF
:103E50004FF0FF337B65BA6F7B6ED31A002BB8BF70
:103E60005B425B423B65BA6F7B6E9A4201DA01238B
:103E700001E04FF0FF33FB64BA6D3B6D13443B62CE
:103E80003B6BBA6F9A4204D13B6B3A6F9A4200D1B6
:103E900059E097F86F30002B1DD13B6A5B00BB6186
:103EA000BA693B6D9A4207DB3A6A3B6D13443B6249
:103EB000FA6F7B6D1344FB67BA69BB6D9A420ADCEB
:103EC0003A6ABB6D13443B62BA6FFB6C1344BB6729
:103ED000012387F86F3097F86E30002B1DD1FB69F6
:103EE0005B007B617A693B6C9A4207DBFA693B6C49
:103EF0001344FB617A6F7B6C13447B677A69BB6CFC
:103F00009A420ADCFA69BB6C1344FB613A6FFB6BA3
:103F100013443B67012387F86E3097F86F30002B0E
:103F200010D097F86E30002B0CD0F86FB96F7A6F05
:103F30003B6FFFF725FE002387F86F30002387F8DB
:103F40006E309DE79CE7002318468437BD4690BD40
:103F500080B588B000AFF860B9607A603B60BB6A3A
:103F6000FF2B01DDFF23BB627B681B1203F0F8030C
:103F7000BA6A02FB03F2BB6AC3F1FF033968091294
:103F800001F0F80101FB03F313442C4A82FB0312F6
:103F90001A44D211DB17D31AFB617B68DB1003F0E4
:103FA000FC03BA6A02FB03F2BB6AC3F1FF03396880
:103FB000C91001F0FC0101FB03F313441F4A82FB0B
:103FC00003121A44D211DB17D31ABB617B68DB00E2
:103FD000DBB2BA6A02FB03F2BB6AC3F1FF033968C2
:103FE000C900C9B201FB03F31344144A82FB031254
:103FF0001A44D211DB17D31A7B61FB6899B2BB68F4
:104000009AB2FB6903F0F8031B0298B2BB6903F094
:10401000FC03DB009BB2034398B27B69DB109BB2CD
:1040200003439BB29BB2084611461A4600F0FCFBC4
:10403000002318462037BD4680BD00BF81808080A8
:1040400080B592B000AFF860B9607A603B607B6881
:104050005B42FB610023BB617A681346DB079B1A56
:104060005B0002337B613B6D002B09DA3A6D3B68E4
:1040700013447B633B683B633B6D5B423B6505E000
:104080003B687B633A6D3B6813443B637B6B002B5F
:1040900001DA00237B63D7E90823104619464FF065
:1040A00000028D4B0CF08CFE0346002B01D05A23EE
:1040B0003B637B6B18460CF089FB02460B461046AF
:1040C00019460CF037FA02460B461046194680A3F3
:1040D000D3E900230CF0E4FB02460B4610461946D8
:1040E0004FF000027D4B0CF005FD02460B46C7E980
:1040F0000A233B6B18460CF059FB02460B46104650
:1041000019460CF017FA02460B461046194670A3E2
:10411000D3E900230CF0C4FB02460B4610461946B7
:104120004FF000026D4B0CF0E5FC02460B46C7E970
:104130000823D7E90A2310461946FFF729FC03464E
:104140007A6802FB03F2664BA3FB02135B0B184673
:104150000CF02CFB02460B46C7E91023D7E90823D5
:1041600010461946FFF760FC03467A6802FB03F22B
:104170005B4BA3FB02135B0B18460CF017FB0246CC
:104180000B46C7E90E23BB6918460CF00FFBD7E9B5
:1041900010230CF00BFE0346002B64D097F854302C
:1041A000032B5FD801A252F823F000BFBD410000ED
:1041B000E7410000114200003B420000FB689AB258
:1041C000FB699BB2D31A99B2BB689AB2BB699BB226
:1041D00013449AB2434B1B689BB2084611461A46D9
:1041E00000F022FB3FE0FB689AB2BB699BB2D31A96
:1041F00099B2BB689AB2FB699BB2D31A9AB2394B97
:104200001B689BB2084611461A4600F00DFB2AE0D7
:10421000FB689AB2FB699BB2134499B2BB689AB22D
:10422000BB699BB2D31A9AB22E4B1B689BB208464D
:1042300011461A4600F0F8FA15E0FB689AB2BB691D
:104240009BB2134499B2BB689AB2FB699BB2134408
:104250009AB2244B1B689BB2084611461A4600F0DE
:10426000E3FA00E000BFFB695B4218460CF0AEFACF
:10427000D7E90E230CF086FD0346002B00D022E088
:104280007B697B60BB697A689A4207D8BB69013356
:10429000BB615A007B69134401337B617A68FB6917
:1042A0009A4203DC7A69BB699A4208D9FB690133F7
:1042B000FB615B001A467B69134401337B61FB6938
:1042C000002BFFF660AF002318464837BD4680BD7F
:1042D000182D4454FB210940008056400080764050
:1042E0005917B7D1041D001080B483B000AF7860B7
:1042F0007B68224A83FB02015A181112DA178A1AC4
:104300004FF4B47101FB02F29B1A7B607B68592B5E
:1043100002DC7B68002B07DA7B6813F5B47F05DBD2
:104320007B6813F5877F01DC002321E07B68B32BDA
:1043300002DC7B68592B07DC7B6813F5877F05DB84
:104340007B6813F1B30F01DA012311E07B68B3F549
:10435000877F02DA7B68B32B07DC7B6813F1B40F2D
:1043600005DB7B6813F1590F01DA022300E0032318
:1043700018460C37BD465DF8047B7047B7600BB636
:1043800080B483B000AF0346FB71FB79032B01D1EE
:10439000002302E0FB790133DBB218460C37BD463F
:1043A0005DF8047B704700BF80B582B000AF7860D5
:1043B0007B68002B01D1052321E1934B01221A8058
:1043C0007B6893F86820914B1A707B68B3F86C2077
:1043D0008F4B1A807B68B3F86A208E4B1A808E4808
:1043E0007968702207F0A2FF8B4B1A688B4B13443D
:1043F00000221A707B689A6D894B13447A68D26DDB
:104400001A607B681A6D864B13447A68526D1A6085
:104410007B681A6C824B13447A68526C1A607B6812
:104420009A6C7F4B13447A68D26C1A607B681A6E60
:104430007C4B13447A68526E1A600A2008F068FABE
:104440007B681A6E764B13447A68526E1A60FF20AE
:10445000012100F00FF9F320082100F00BF9F320FF
:10446000FFF7D2F801204FF4807100F003F9022029
:104470004FF4E06100F0FEF8032041F2300100F05B
:10448000F9F81020002100F0F5F81120072100F0C4
:10449000F1F81220002100F0EDF81320002100F0C7
:1044A000E9F80A2008F034FA102041F2B04100F097
:1044B000E1F80A2008F02CFA1120072100F0DAF8C0
:1044C0000A2008F025FA12208E2100F0D3F81320DC
:1044D0004FF4406100F0CEF82920152100F0CAF811
:1044E0000A2008F015FA3020002100F0C3F831202E
:1044F00040F2071100F0BEF83220002100F0BAF8B7
:10450000352040F2032100F0B5F8362040F2024198
:1045100000F0B0F83720002100F0ACF8382040F26D
:10452000072100F0A7F83920002100F0A3F83C2073
:1045300040F2032100F09EF83D2040F2034100F0DC
:1045400099F85020002100F095F85120EF2100F05B
:1045500091F85220002100F08DF8532040F23F11D5
:1045600000F088F860204FF4274100F083F86120C4
:10457000012100F07FF86A20002100F07BF8802004
:10458000002100F077F88120002100F073F88220EC
:10459000002100F06FF88320002100F06BF88420E8
:1045A000002100F067F88520002100F063F89020DA
:1045B000292100F05FF89220002100F05BF89320A1
:1045C000032100F057F895204FF4887100F052F85D
:1045D0009720002100F04EF89820002100F04AF8C2
:1045E000082040F2022100F045F80920002100F0E7
:1045F00041F8072040F2731100F03CF80023184600
:104600000837BD4680BD00BFFC1C0010201D0010F7
:10461000FE1C0010001D0010241D001014C00920F5
:1046200018C009201CC0092080B400AF044B002230
:104630001A8000231846BD465DF8047B704700BF12
:10464000FC1C001080B500AF094B1B88002B01D16A
:1046500005230BE02020002100F00CF82120002190
:1046600000F008F82220FEF7CFFF0023184680BD97
:10467000FC1C001080B582B000AF02460B46FA80E9
:10468000BB80094B1B88002B01D1022308E0FB886B
:104690001846FEF7B9FFBB881846FFF721F800233C
:1046A00018460837BD4680BDFC1C001080B584B09C
:1046B00000AFF880B9807A803B800023FB81002323
:1046C000BB8100237B8100233B812A4B1B88002B6D
:1046D00001D105234AE0F888B98807F10E0207F1F5
:1046E0000C0300F097F97888398807F10A0207F17E
:1046F000080300F08FF9FA897B899A420ED9FA896A
:104700007B8953409BB2FB817A89FB8953409BB2E2
:104710007B81FA897B8953409BB2FB81BA893B89B3
:104720009A420ED9BA893B8953409BB2BB813A89E0
:10473000BB8953409BB23B81BA893B8953409BB2B2
:10474000BB81FB8950201946FFF794FF7B895120DC
:104750001946FFF78FFFBB8952201946FFF78AFFE2
:104760003B8953201946FFF785FF00231846103771
:10477000BD4680BDFC1C001080B584B000AF024671
:104780000B46FA80BB800023FB810023BB810E4BCC
:104790001B88002B01D1052312E0F888B98807F1A6
:1047A0000E0207F10C0300F035F9FB8920201946B1
:1047B000FFF760FFBB8921201946FFF75BFF00234D
:1047C00018461037BD4680BDFC1C001080B584B073
:1047D00000AF0346FB80124BB3F86A30104AB2F8C0
:1047E0006C2002FB03F3BB600E4B1B88002B01D136
:1047F000052310E0FFF726FF0023FB6006E0FB889F
:104800001846FEF76DFFFB680133FB60FA68BB6872
:104810009A42F4D3002318461037BD4680BD00BF2E
:10482000241D0010FC1C001080B584B000AF13469E
:104830000246FA800A46BA807B800023FB8100236F
:10484000BB81144B1B88002B01D105231DE0F88888
:10485000B98807F10E0207F10C0300F0DBF8202005
:10486000FEF7D2FEFB891846FEF73AFF2120FEF73D
:10487000CBFEBB891846FEF733FF2220FEF7C4FEAD
:104880007B881846FEF72CFF002318461037BD46DC
:1048900080BD00BFFC1C001080B584B000AF0B468B
:1048A0003A600246FA80BB800023FB810023BB8173
:1048B000144B1B88002B01D105231FE0F888B98811
:1048C00007F10E0207F10C0300F0A4F82020FEF718
:1048D0009BFEFB891846FEF703FF2120FEF794FE9E
:1048E000BB891846FEF7FCFE2220FEF78DFEFEF780
:1048F00063FF03461A463B681A80002318461037A8
:10490000BD4680BDFC1C001080B500AF074B1B8866
:10491000002B01D1052307E000200021EF2240F207
:104920003F13FFF7C3FE0023184680BDFC1C001098
:1049300080B586B000AFF880B9807A803B801A4B92
:104940001B88002B01D105232AE0F888B9887A88D2
:104950003B88FFF7ABFEFA88BB8810461946FFF785
:104960000BFF7A88FB88D31A01333B613A88BB88F6
:10497000D31A0133FB602220FEF746FE3B69FA683A
:1049800002FB03F37B6103E03B8C1846FEF7A8FEB5
:104990007B695A1E7A61002BF6D1FFF7B5FF002321
:1049A00018461837BD4680BDFC1C001080B483B08B
:1049B00000AF0346FB71084B1B88002B01D1052378
:1049C00003E0064BFA791A70002318460C37BD46EF
:1049D0005DF8047B704700BFFC1C0010201D001018
:1049E00080B483B000AF7860084B1B88002B01D1E6
:1049F000052304E0064B1A787B681A7000231846DA
:104A00000C37BD465DF8047B704700BFFC1C0010EE
:104A1000201D001080B485B000AFBA607B600346F3
:104A2000FB810B46BB81244B1B78032B36D801A29C
:104A300052F823F0454A0000534A0000694A00003A
:104A4000874A0000BB68FA891A807B68BA891A8095
:104A50002AE01A4B1A88BB89D31A9AB2BB681A800B
:104A60007B68FA891A801FE0144B1A88FB89D31AD5
:104A70009AB2BB681A80124B1A88BB89D31A9AB2B1
:104A80007B681A8010E0BB68BA891A800C4B1A88C0
:104A9000FB89D31A9AB27B681A8005E0BB68FA8951
:104AA0001A807B68BA891A80002318461437BD46DD
:104AB0005DF8047B704700BF201D0010FE1C001035
:104AC000001D001080B582B000AF7860084B1B88D5
:104AD000002B01D1052306E07B689BB26A201946B2
:104AE000FFF7C8FD002318460837BD4680BD00BF4C
:104AF000FC1C001080B483B000AF7860084B1B88AA
:104B0000002B01D1052305E0064BB3F86A207B6832
:104B10001A80002318460C37BD465DF8047B7047A9
:104B2000FC1C0010241D001080B483B000AF78601E
:104B3000084B1B88002B01D1052305E0064BB3F879
:104B40006C207B681A80002318460C37BD465DF840
:104B5000047B7047FC1C0010241D001080B483B03F
:104B600000AF7860044B7A681A60002318460C374F
:104B7000BD465DF8047B70470CC6072080B483B047
:104B800000AF7860054B1B689AB27B681A800023DF
:104B900018460C37BD465DF8047B70470CC60720ED
:104BA00080B483B000AF7860044B7A681A60002349
:104BB00018460C37BD465DF8047B7047041D001095
:104BC00080B483B000AF7860054B1B689AB27B68F5
:104BD0001A80002318460C37BD465DF8047B7047E9
:104BE000041D001080B588B000AFF860B9607A602D
:104BF0007B807B68013B7B617B695B08FA68D31A29
:104C0000FB611EE07B695B08BA68D31ABB610CE0EC
:104C1000FB6999B2BB699AB27B88084611461A466D
:104C2000FFF702FEBB690133BB617B695B087A69F0
:104C3000D21ABB681A44BB699A42E9D2FB690133B4
:104C4000FB617B695B087A69D21AFB681A44FB69CD
:104C50009A42D7D2002318462037BD4680BD00BFF8
:104C600080B584B000AF786039600023FB8107F124
:104C70000E031846FFF7A4FF07F10C031846FFF7D1
:104C80007DFFBB891A46FB8978683968FFF7AAFF60
:104C9000002318461037BD4680BD00BF80B584B0E4
:104CA00000AFF860B9607A603B60F868B9687A680C
:104CB000BB6800F0F1F97868B9687A683B6800F081
:104CC000EBF9F86839687A683B6800F0E5F9F8684C
:104CD000B968FA683B6800F0DFF90023184610371E
:104CE000BD4680BD90B589B000AFF860B9607A600C
:104CF0003B607B685B42FB610023BB617A681346C3
:104D0000DB079B1A5B0002337B6100237B8207F188
:104D100012031846FFF754FF3B681846FFF740FFA1
:104D2000FB69FA68D31A1846BA69BB681344194676
:104D3000FA69FB6813441A46BC69BB682344FEF752
:104D40001FFFBB69FA68D31A1846FA69BB68134497
:104D50001946BA69FB6813441A46FC69BB682344C8
:104D6000FEF70EFF7B697B60BB697A689A4207DCBD
:104D7000BB690133BB615A007B69134401337B611A
:104D8000FB697A689A4203DC7A69BB699A4207DD5B
:104D9000FB690133FB615A007B69134401337B617A
:104DA000FB69002BBCDB7B8A1846FFF7F9FE00236A
:104DB00018462437BD4690BD90B587B002AFF86065
:104DC000B9607A603B60FB6898B2BB6899B27B6857
:104DD0009AB23B689BB23C6AA4B20094FFF7A8FD6C
:104DE000002318461437BD4690BD00BF90B589B06A
:104DF00000AFF860B9607A60FB707B685B42FB6172
:104E00000023BB617A681346DB079B1A5B00023301
:104E10007B6100237B8207F112031846FFF7D0FE67
:104E20003B6B1846FFF7BCFEFB78022B0DD1F868F0
:104E3000BA68BB69D31A1946FA68FB6913441A4663
:104E4000BC68BB69E31AFEF79BFEFB78032B0DD110
:104E5000F868BA68FB6913441946FA68BB691344D9
:104E60001A46BC68FB692344FEF78AFEFB78002BD8
:104E70000DD1F868BA68BB6913441946FA68FB6932
:104E8000D31A1A46BC68BB692344FEF779FEFB7847
:104E9000012B0DD1F868BA68FB69D31A1946FA6874
:104EA000BB69D31A1A46BC68FB69E31AFEF768FEB1
:104EB0007B697B607A68BB699A4208DCBB69013315
:104EC000BB61BB695A007B69134401337B617A681B
:104ED000FB699A4203DC7A69BB699A4208DDFB6987
:104EE0000133FB61FB695A007B69134401337B6129
:104EF000FB69002B98DB7B8A1846FFF751FE0023E5
:104F000018462437BD4690BD80B58EB002AFF8601C
:104F1000B9607A603B6000237B820023FB62002340
:104F2000BB6200237B6200233B620023FB61002302
:104F3000BB6100237B6107F112031846FFF740FEB7
:104F40007A68FB689A4238BF1346FB623A68BB68CE
:104F50009A4238BF1346BB627A68FB689A4228BF00
:104F600013467B623A68BB689A4228BF13463B628D
:104F70007A6AFB6AD31AFB613A6ABB6AD31ABB61CD
:104F8000BA69FB699A4238BF13467B61BB6B5A0012
:104F90007B699A4202D97B695B08BB637B8A1846AE
:104FA000FFF7FEFDFA6ABB6B13441946BA6ABB6B86
:104FB00013441A46BB6BF86B0090084611461A461C
:104FC0000223FFF713FF7A6ABB6BD31A1946BA6A3A
:104FD000BB6B13441A46BB6BF86B00900846114636
:104FE0001A460323FFF702FFFA6ABB6B1344194604
:104FF0003A6ABB6BD31A1A46BB6BF86B0090084633
:1050000011461A460123FFF7F1FE7A6ABB6BD31AE9
:1050100019463A6ABB6BD31A1A46BB6BF86B009001
:10502000084611461A460023FFF7E0FEFA6ABB6BFA
:10503000D1187A6ABB6BD21AB86ABB6B0344F86B9F
:1050400000900846B96AFFF7B7FEBA6ABB6B1A440C
:10505000396ABB6BCB1AF96B0091F86A11467A6A10
:10506000FFF7AAFEFA6ABB6BD1183A6ABB6BD21A79
:10507000786ABB6BC31AF86B0090084611461A4653
:105080003B6AFFF799FE7B8A1846FFF789FD0023EC
:1050900018463037BD4680BD80B58AB000AFF86095
:1050A000B9607A603B607A68FB68D31A002BB8BF9E
:1050B0005B427B62FA687B689A4201DA012301E075
:1050C0004FF0FF333B623A68BB68D31A002BB8BF7E
:1050D0005B425B42FB61BA683B689A4201DA01239A
:1050E00001E04FF0FF33BB617A6AFB6913447B61D7
:1050F000FA687B689A4203D0BA683B689A4207D143
:10510000F868B9687A683B68FEF73AFD002330E03A
:10511000F868B968194B1A68194B1B689BB2FFF7FE
:1051200061FDFA687B689A4206D1BA683B689A4288
:1051300002D100BF00231CE07B695B003B613A6940
:10514000FB699A4207DB7A69FB6913447B61FA6861
:105150003B6A1344FB603A697B6A9A4208DC7A69CD
:105160007B6A13447B61BA68BB691344BB60CFE7B9
:10517000CEE718462837BD4680BD00BF0CC60720C5
:10518000041D001080B588B000AFF860B9607A6087
:105190007B685B42FB610023BB617A681346DB07D7
:1051A0009B1A5B0002337B61FB69FA68D31A1846CD
:1051B000BA69BB68134419462C4B1A682C4B1B6800
:1051C0009BB2FFF70FFDBB69FA68D31A1846FB695B
:1051D000BA68D31A1946254B1A68254B1B689BB22F
:1051E000FFF700FDFA69FB6813441846BB69BA680B
:1051F000D31A19461D4B1A681D4B1B689BB2FFF74B
:10520000F1FCBA69FB6813441846FA69BB68134499
:105210001946164B1A68164B1B689BB2FFF7E2FC47
:105220007B697B60BB697A689A4207DCBB690133A2
:10523000BB615A007B69134401337B61FB697A6867
:105240009A4203DC7A69BB699A4207DDFB69013344
:10525000FB615A007B69134401337B61FB69002BBE
:10526000A2DB002318462037BD4680BD0CC60720B0
:10527000041D001080B588B000AFF860B9607A6096
:10528000FB707B685B42FB610023BB617A6813465D
:10529000DB079B1A5B0002337B61FB78032B4BD847
:1052A00001A252F823F000BFB9520000D952000009
:1052B000F952000019530000FB69FA68D31A184626
:1052C000BA69BB68134419462E4B1A682E4B1B68EB
:1052D0009BB2FFF787FC2FE0BB69FA68D31A184628
:1052E000FB69BA68D31A1946264B1A68264B1B6805
:1052F0009BB2FFF777FC1FE0FA69FB68134418467E
:10530000BB69BA68D31A19461E4B1A681E4B1B6834
:105310009BB2FFF767FC0FE0BA69FB6813441846BD
:10532000FA69BB6813441946164B1A68164B1B687A
:105330009BB2FFF757FC00BF7B697B60BB697A6853
:105340009A4207DCBB690133BB615A007B69134495
:1053500001337B61FB697A689A4203DC7A69BB6935
:105360009A4207DDFB690133FB615A007B691344F4
:1053700001337B61FB69002B8FDB0023184620374C
:10538000BD4680BD0CC60720041D001090B587B037
:1053900000AFF860B9607A6000237B6100237B6115
:1053A0001DE07B699B00FA6813441B6818467B6903
:1053B0009B00BA6813441B6819467B6901339B0044
:1053C000FA6813441B681A467B6901339B00BC686A
:1053D00023441B68FFF760FE7B6901337B617B68B8
:1053E0005A1E7B699A42DCD8FB681B681846BB686A
:1053F0001B6819467B6803F18043013B9B00FA68F8
:1054000013441B681A467B6803F18043013B9B00F1
:10541000BC6823441B68FFF73FFE002318461C3777
:10542000BD4690BD90B58DB000AFF860B9607A60B0
:105430003B607B685B427B6200233B623B68FB61B5
:105440007B6A5B000133FA6902FB03F3FA6902FB32
:1054500003F3FB627B6A7A6A02FB03F3BB62FA6ABC
:10546000BB6A1344BB610023FB8207F11603184695
:10547000FFF7A6FB3B6C1846FFF792FB7B6AFA68C6
:10548000D31A18463A6ABB68134419467A6AFB680D
:1054900013441A463C6ABB682344FEF771FB7B6ADF
:1054A000FA68D31A18463B6ABA68D31A19467A6A58
:1054B000FB6813441A463B6ABC68E31AFEF760FBBC
:1054C000BB695B00FB61FA69FB6A9A420EDB7B6A8F
:1054D00001337B623B683A6802FB03F35B00FA6AC4
:1054E0001344FB62BA69FB6A1344BB61FA69BB6A85
:1054F0009A420EDC3B6A01333B627B687A6802FBAE
:1055000003F35B00BA6A1344BB62BA69BB6A134413
:10551000BB617B6A002BB1DD21E0FB6899B2BB68FF
:105520009AB23B6A9BB213449BB29AB2134B1B686C
:105530009BB2084611461A46FFF776F9FB6899B206
:10554000BB689AB23B6A9BB2D31A9BB29AB20B4B1E
:105550001B689BB2084611461A46FFF765F93B6A7D
:105560005A1C3A623A689342D7DBFB8A1846FFF727
:1055700017FB002318463437BD4690BD041D0010AC
:10558000F0B58DB000AFF860B9607A603B60386804
:105590000BF00CF902460B4635A1D1E900010BF0E6
:1055A000A9FA02460B46C7E90A2300237B6256E0AC
:1055B0007B6A18460BF0FAF802460B46104619466D
:1055C000D7E90A230BF06CF902460B461046194640
:1055D000FEF72AFA03467A6802FB03F2FB681344DB
:1055E00018460BF0E3F802460B46C7E906237B6A30
:1055F00018460BF0DBF802460B4610461946D7E971
:105600000A230BF04DF902460B4610461946FEF7E9
:10561000BFF903467A6802FB03F2BB6813441846DD
:105620000BF0C4F802460B46C7E90423FE68BD68C8
:10563000D7E90623104619460BF0CCFB03461C465F
:10564000D7E90423104619460BF0C4FB0346304645
:1056500029462246FFF720FD7B6A01337B627A6A86
:105660003B689A42A4D3002318463437BD46F0BDA8
:10567000182D4454FB21194080B58CB000AFF86060
:10568000B960FA71BB7100233B61BB79012B0AD071
:10569000022B0FD0002B18D108233B620823FB619B
:1056A000614BBB6111E010233B620823FB615F4B40
:1056B000BB610AE018233B621023FB615C4B7B61FA
:1056C000FB79203BDBB2FB7100BFBB79002B02D022
:1056D000BB79012B50D10023BB6248E0FB793A6AC9
:1056E00002FB03F2BB6A1344BA6913441B787B6262
:1056F0007B6A1B027B620023FB6231E07B6A03F45E
:105700000043002B13D0FB689AB2FB6A9BB2134490
:1057100099B2BB689AB2BB6A9BB213449AB2BB6B94
:105720009BB2084611461A46FFF77EF812E0FB6866
:105730009AB2FB6A9BB2134499B2BB689AB2BB6A35
:105740009BB213449AB2FB6B9BB2084611461A46B1
:10575000FFF76AF87B6A5B007B62FB6A0133FB62DE
:10576000FA6AFB699A42C9D3BB6A0133BB62BA6A5F
:105770003B6A9A42B2D351E00023BB624AE0002365
:105780003B61FB793A6A02FB03F2BB6A13443B615B
:105790003B695B007A6913441B887B620023FB62D0
:1057A00031E07B6A03F00103002B13D0FB689AB24F
:1057B000FB6A9BB2134499B2BB689AB2BB6A9BB2B4
:1057C00013449AB2BB6B9BB2084611461A46FFF7C8
:1057D0002BF812E0FB689AB2FB6A9BB2134499B2B1
:1057E000BB689AB2BB6A9BB213449AB2FB6B9BB282
:1057F000084611461A46FFF717F87B6A5B087B627A
:10580000FB6A0133FB62FA6AFB699A42C9D3BB6A3D
:105810000133BB62BA6A3B6A9A42B0D3002318468E
:105820003037BD4680BD00BFEC500100F458010088
:10583000F460010080B58AB000AFF860B9603B60E9
:105840001346FB711823FB761023BB76354B7B6127
:1058500000233B611823FB761023BB76324B314A81
:105860001A60FB79203BDBB2FB7100233B624FE007
:1058700000233B61FB79FA7E02FB03F31A463B6A85
:1058800013443B613B695B007A691A44264B1A60FA
:10589000254B1B681B88FB6100237B6231E0FB69A1
:1058A00003F00103002B13D0FB689AB27B6A9BB212
:1058B000134499B2BB689AB23B6A9BB213449AB242
:1058C0003B689BB2084611461A46FEF7ADFF12E050
:1058D000FB689AB27B6A9BB2134499B2BB689AB2D6
:1058E0003B6A9BB213449AB23B6B9BB2084611468B
:1058F0001A46FEF799FFFB695B08FB617B6A01337F
:105900007B62BA7E7B6A9A42C9D83B6A01333B62AA
:10591000FA7E3B6A9A42ABD8002318462837BD4628
:1059200080BD00BFF46001001C1D001080B588B070
:1059300002AFF860B9607A60FB70FB78012B09D088
:10594000022B0CD0002B00D041E00823FB7508236C
:10595000BB7509E01023FB750823BB7504E0182311
:10596000FB751023BB7500BF31E07B681B780A2BE9
:1059700005D1FB7DDBB2BA681344BB6024E07B68D1
:105980001B780D2B02D10023FB601DE0FB78022B5E
:105990000AD17B681B787A6A0092F868B9681A465F
:1059A0003B6AFFF747FF0AE07B681A78FB78396AA1
:1059B0000091796A0191F868B968FFF75DFEBB7DD7
:1059C000DBB2FA681344FB607B6801337B607B6861
:1059D0001B78002BC9D1002318461837BD4680BD5F
:1059E00090B58DB002AFF860B9607A603B607B69BA
:1059F000574A83FB02015A189111DA178A1A5A2161
:105A000001FB02F29B1A3B623B69514A83FB020194
:105A10005A189111DA178A1A5A2101FB02F29B1ABD
:105A2000FB61BB6B13F5B47F03DDBB6BB3F5B47FD8
:105A300006DBF868B9687A68FFF7A4FB002382E008
:105A40003B68434A83FB02015A181112DA178A1A7B
:105A50004FF4B47101FB02F29B1A3B60BB6B002B4D
:105A600021DA3A68BB6B13447B613B683B617B691D
:105A7000002B14DA7B695B42354A83FB02015A181A
:105A80001112DA178A1A4FF4B47101FB02F29A1A52
:105A9000C2F5B4737B613B6803F5B4733B61BB6BC8
:105AA0005B42BB6305E03B687B613A68BB6B1344B8
:105AB0003B617B691846FEF717FC0346FB763B69A2
:105AC0001846FEF711FC0346BB76FA7EBB7E9A426F
:105AD00003D13A6AFB699A422ADDFB7E87F82730B8
